{
  "transactions": [
    {
      "hash": "0x6dcf57c02921374487a4f03cd4bbd3a26d6c278c1ce47f05df2b7fab1111d14a",
      "transactionType": "CALL",
      "contractName": null,
      "contractAddress": "0x0725f78B36035491758aA71822Bbfa48d22E9052",
      "function": "setAsset(address,uint256)",
      "arguments": [
        "0xAa3FDEB44B7bb1C0A366685c0A10b1a2aEa6548C",
        "3"
      ],
      "transaction": {
        "type": "0x02",
        "from": "0x5cdc9010d01d6744dd9213a0e28aa780210ec544",
        "to": "0x0725f78b36035491758aa71822bbfa48d22e9052",
        "gas": "0x12f63",
        "value": "0x0",
        "data": "0xf57c390d000000000000000000000000aa3fdeb44b7bb1c0a366685c0a10b1a2aea6548c0000000000000000000000000000000000000000000000000000000000000003",
        "nonce": "0x23",
        "accessList": []
      },
      "additionalContracts": [],
      "isFixedGasLimit": false
    }
  ],
  "receipts": [
    {
      "transactionHash": "0x6dcf57c02921374487a4f03cd4bbd3a26d6c278c1ce47f05df2b7fab1111d14a",
      "transactionIndex": "0x2",
      "blockHash": "0x3abf9906ad15b703e0bb6c61d9349f8dd0af61ba155a71cbeb5229e068f89a30",
      "blockNumber": "0x49fa57",
      "from": "0x5Cdc9010D01d6744Dd9213A0e28aa780210eC544",
      "to": "0x0725f78B36035491758aA71822Bbfa48d22E9052",
      "cumulativeGasUsed": "0x985ec",
      "gasUsed": "0xcf72",
      "contractAddress": null,
      "logs": [],
      "status": "0x1",
      "logsBloom": "0x00000000000000000000000000000000000000000000000000000000000000000000000000000000000000000000000000000000000000000000000000000000000000000000000000000000000000000000000000000000000000000000000000000000000000000000000000000000000000000000000000000000000000000000000000000000000000000000000000000000000000000000000000000000000000000000000000000000000000000000000000000000000000000000000000000000000000000000000000000000000000000000000000000000000000000000000000000000000000000000000000000000000000000000000000000000",
      "type": "0x2",
      "effectiveGasPrice": "0xc4e14f5c"
    }
  ],
  "libraries": [],
  "pending": [],
  "returns": {},
  "timestamp": 1702061682,
  "chain": 11155111,
  "multi": false,
  "commit": "48d25dc"
}