{
  "transactions": [
    {
      "hash": "0x37be7cabda2aa289df298d18d2d9209c929b89ad50fc708047fc254b087bacea",
      "transactionType": "CALL",
      "contractName": null,
      "contractAddress": "0xfF17EE717416E23A3E86F613DA1b4bA09169bC7f",
      "function": "setAsset(address,uint256)",
      "arguments": [
        "0xAa3FDEB44B7bb1C0A366685c0A10b1a2aEa6548C",
        "2"
      ],
      "transaction": {
        "type": "0x02",
        "from": "0x5cdc9010d01d6744dd9213a0e28aa780210ec544",
        "to": "0xff17ee717416e23a3e86f613da1b4ba09169bc7f",
        "gas": "0x12f63",
        "value": "0x0",
        "data": "0xf57c390d000000000000000000000000aa3fdeb44b7bb1c0a366685c0a10b1a2aea6548c0000000000000000000000000000000000000000000000000000000000000002",
        "nonce": "0x16",
        "accessList": []
      },
      "additionalContracts": [],
      "isFixedGasLimit": false
    }
  ],
  "receipts": [],
  "libraries": [],
  "pending": [
    "0x37be7cabda2aa289df298d18d2d9209c929b89ad50fc708047fc254b087bacea"
  ],
  "returns": {},
  "timestamp": 1702058694,
  "chain": 11155111,
  "multi": false,
  "commit": "48d25dc"
}