{
  "transactions": [
    {
      "hash": "0x77d90f55bfb9f92cd7b7742338758e41753a6fbb62bf761ba537108010c535e1",
      "transactionType": "CALL",
      "contractName": null,
      "contractAddress": "0x0725f78B36035491758aA71822Bbfa48d22E9052",
      "function": "setAsset(address,uint256)",
      "arguments": [
        "0x35B9B2B23f01452eab2095d074966F99A1d1aAd0",
        "3"
      ],
      "transaction": {
        "type": "0x02",
        "from": "0x5cdc9010d01d6744dd9213a0e28aa780210ec544",
        "to": "0x0725f78b36035491758aa71822bbfa48d22e9052",
        "gas": "0x12f63",
        "value": "0x0",
        "data": "0xf57c390d00000000000000000000000035b9b2b23f01452eab2095d074966f99a1d1aad00000000000000000000000000000000000000000000000000000000000000003",
        "nonce": "0x1d",
        "accessList": []
      },
      "additionalContracts": [],
      "isFixedGasLimit": false
    }
  ],
  "receipts": [
    {
      "transactionHash": "0x77d90f55bfb9f92cd7b7742338758e41753a6fbb62bf761ba537108010c535e1",
      "transactionIndex": "0x3",
      "blockHash": "0x35950e0f9a5f7a097ea30993ac839f3a4ac8f53912d0198a261cc015d710921c",
      "blockNumber": "0x49fa2d",
      "from": "0x5Cdc9010D01d6744Dd9213A0e28aa780210eC544",
      "to": "0x0725f78B36035491758aA71822Bbfa48d22E9052",
      "cumulativeGasUsed": "0xbc837",
      "gasUsed": "0xcf72",
      "contractAddress": null,
      "logs": [],
      "status": "0x1",
      "logsBloom": "0x00000000000000000000000000000000000000000000000000000000000000000000000000000000000000000000000000000000000000000000000000000000000000000000000000000000000000000000000000000000000000000000000000000000000000000000000000000000000000000000000000000000000000000000000000000000000000000000000000000000000000000000000000000000000000000000000000000000000000000000000000000000000000000000000000000000000000000000000000000000000000000000000000000000000000000000000000000000000000000000000000000000000000000000000000000000",
      "type": "0x2",
      "effectiveGasPrice": "0xe189d582"
    }
  ],
  "libraries": [],
  "pending": [],
  "returns": {},
  "timestamp": 1702061119,
  "chain": 11155111,
  "multi": false,
  "commit": "48d25dc"
}