{
  "transactions": [
    {
      "hash": "0x34246a6f6d7aeb62511ad15d9813e9170e4e08b91f40d429bd251648883ce597",
      "transactionType": "CALL",
      "contractName": null,
      "contractAddress": "0x296c083a98ABFecc01459DF095a17A240a48Cd95",
      "function": "setAsset(address,uint256)",
      "arguments": [
        "0x1A5eDBfB1e43661262b5c33Dcc3887bA45D99791",
        "1"
      ],
      "transaction": {
        "type": "0x02",
        "from": "0x5cdc9010d01d6744dd9213a0e28aa780210ec544",
        "to": "0x296c083a98abfecc01459df095a17a240a48cd95",
        "gas": "0x11ec5",
        "value": "0x0",
        "data": "0xf57c390d0000000000000000000000001a5edbfb1e43661262b5c33dcc3887ba45d997910000000000000000000000000000000000000000000000000000000000000001",
        "nonce": "0x39",
        "accessList": []
      },
      "additionalContracts": [],
      "isFixedGasLimit": false
    }
  ],
  "receipts": [],
  "libraries": [],
  "pending": [
    "0x34246a6f6d7aeb62511ad15d9813e9170e4e08b91f40d429bd251648883ce597"
  ],
  "returns": {},
  "timestamp": 1702064872,
  "chain": 11155111,
  "multi": false,
  "commit": "48d25dc"
}