{
  "transactions": [
    {
      "hash": "0xcb58c8604c1fa5644ab585f67179cecdc90b97461ddd2db1ed10be57d6f81c10",
      "transactionType": "CALL",
      "contractName": null,
      "contractAddress": "0x271654E2B8D3F54fE732B16F5968416B00fa82Fe",
      "function": "setAsset(address,uint256)",
      "arguments": [
        "0x1A5eDBfB1e43661262b5c33Dcc3887bA45D99791",
        "2"
      ],
      "transaction": {
        "type": "0x02",
        "from": "0x5cdc9010d01d6744dd9213a0e28aa780210ec544",
        "to": "0x271654e2b8d3f54fe732b16f5968416b00fa82fe",
        "gas": "0x11ec4",
        "value": "0x0",
        "data": "0xf57c390d0000000000000000000000001a5edbfb1e43661262b5c33dcc3887ba45d997910000000000000000000000000000000000000000000000000000000000000002",
        "nonce": "0x56",
        "accessList": []
      },
      "additionalContracts": [],
      "isFixedGasLimit": false
    }
  ],
  "receipts": [
    {
      "transactionHash": "0xcb58c8604c1fa5644ab585f67179cecdc90b97461ddd2db1ed10be57d6f81c10",
      "transactionIndex": "0x6",
      "blockHash": "0xeedb10bda17413f0c6b6c354cadae64d0f93d6908d2bc53f2c5e53bc39788f6a",
      "blockNumber": "0x49fc49",
      "from": "0x5Cdc9010D01d6744Dd9213A0e28aa780210eC544",
      "to": "0x271654E2B8D3F54fE732B16F5968416B00fa82Fe",
      "cumulativeGasUsed": "0x301bb4",
      "gasUsed": "0xcf9e",
      "contractAddress": null,
      "logs": [],
      "status": "0x1",
      "logsBloom": "0x00000000000000000000000000000000000000000000000000000000000000000000000000000000000000000000000000000000000000000000000000000000000000000000000000000000000000000000000000000000000000000000000000000000000000000000000000000000000000000000000000000000000000000000000000000000000000000000000000000000000000000000000000000000000000000000000000000000000000000000000000000000000000000000000000000000000000000000000000000000000000000000000000000000000000000000000000000000000000000000000000000000000000000000000000000000",
      "type": "0x2",
      "effectiveGasPrice": "0xb9c3be8f"
    }
  ],
  "libraries": [],
  "pending": [],
  "returns": {},
  "timestamp": 1702068303,
  "chain": 11155111,
  "multi": false,
  "commit": "077e3d2"
}